{
  "contractName": "StoreValue",
  "abi": [
    {
      "inputs": [],
      "name": "get_output",
      "outputs": [
        {
          "internalType": "string",
          "name": "",
          "type": "string"
        }
      ],
      "stateMutability": "pure",
      "type": "function",
      "constant": true
    }
  ],
  "bytecode": "0x608060405234801561001057600080fd5b506101b0806100206000396000f3fe608060405234801561001057600080fd5b506004361061002b5760003560e01c806354f8a2f214610030575b600080fd5b61003861004e565b60405161004591906100fe565b60405180910390f35b60606040518060800160405280605a8152602001610121605a9139905090565b600081519050919050565b600082825260208201905092915050565b60005b838110156100a857808201518184015260208101905061008d565b60008484015250505050565b6000601f19601f8301169050919050565b60006100d08261006e565b6100da8185610079565b93506100ea81856020860161008a565b6100f3816100b4565b840191505092915050565b6000602082019050818103600083015261011881846100c5565b90509291505056fe68747470733a2f2f697066732e6d6f72616c69732e696f3a323035332f697066732f516d5538527432353350343335697532657042354858753765654d3831744c58565a5651796465483444566546622f524541444d452e6d64a26469706673582212209d0725ae5e2b2f4a045a2199b25fefe272392836ab16ee91a93c8a7f7790321a64736f6c63430008150033",
  "immutableReferences": {},
  "source": "pragma solidity ^0.8.12;\n\ncontract StoreValue{\n    // Defining a function\n    function get_output() public pure returns (string memory){\n        return (\"https://ipfs.moralis.io:2053/ipfs/QmU8Rt253P435iu2epB5HXu7eeM81tLXVZVQydeH4DVeFb/README.md\");\n    }\n}",
  "sourcePath": "D:\\projects\\large_projects\\blockchain-child-healthcare\\contracts\\StoreValue.sol",
  "compiler": {
    "name": "solc",
    "version": "0.8.21+commit.d9974bed.Emscripten.clang"
  },
  "schemaVersion": "3.4.16",
  "updatedAt": "2024-03-03T06:56:32.839Z",
  "networkType": "ethereum",
  "devdoc": {
    "kind": "dev",
    "methods": {},
    "version": 1
  },
  "userdoc": {
    "kind": "user",
    "methods": {},
    "version": 1
  }
}